{
  "_format": "hh-sol-artifact-1",
  "contractName": "ChessGame",
  "sourceName": "src/ChessGame.sol",
  "abi": [
    {
      "inputs": [],
      "stateMutability": "nonpayable",
      "type": "constructor"
    },
    {
      "inputs": [],
      "name": "ECDSAInvalidSignature",
      "type": "error"
    },
    {
      "inputs": [
        {
          "internalType": "uint256",
          "name": "length",
          "type": "uint256"
        }
      ],
      "name": "ECDSAInvalidSignatureLength",
      "type": "error"
    },
    {
      "inputs": [
        {
          "internalType": "bytes32",
          "name": "s",
          "type": "bytes32"
        }
      ],
      "name": "ECDSAInvalidSignatureS",
      "type": "error"
    },
    {
      "inputs": [],
      "name": "InvalidShortString",
      "type": "error"
    },
    {
      "inputs": [
        {
          "internalType": "string",
          "name": "str",
          "type": "string"
        }
      ],
      "name": "StringTooLong",
      "type": "error"
    },
    {
      "anonymous": false,
      "inputs": [],
      "name": "EIP712DomainChanged",
      "type": "event"
    },
    {
      "inputs": [],
      "name": "MOVE_METHOD_HASH",
      "outputs": [
        {
          "internalType": "bytes32",
          "name": "",
          "type": "bytes32"
        }
      ],
      "stateMutability": "view",
      "type": "function"
    },
    {
      "inputs": [],
      "name": "eip712Domain",
      "outputs": [
        {
          "internalType": "bytes1",
          "name": "fields",
          "type": "bytes1"
        },
        {
          "internalType": "string",
          "name": "name",
          "type": "string"
        },
        {
          "internalType": "string",
          "name": "version",
          "type": "string"
        },
        {
          "internalType": "uint256",
          "name": "chainId",
          "type": "uint256"
        },
        {
          "internalType": "address",
          "name": "verifyingContract",
          "type": "address"
        },
        {
          "internalType": "bytes32",
          "name": "salt",
          "type": "bytes32"
        },
        {
          "internalType": "uint256[]",
          "name": "extensions",
          "type": "uint256[]"
        }
      ],
      "stateMutability": "view",
      "type": "function"
    },
    {
      "inputs": [
        {
          "internalType": "uint16[]",
          "name": "moves",
          "type": "uint16[]"
        },
        {
          "internalType": "bytes",
          "name": "signature",
          "type": "bytes"
        },
        {
          "internalType": "address",
          "name": "signer",
          "type": "address"
        }
      ],
      "name": "verifySignature",
      "outputs": [
        {
          "internalType": "bool",
          "name": "",
          "type": "bool"
        }
      ],
      "stateMutability": "pure",
      "type": "function"
    },
    {
      "inputs": [
        {
          "internalType": "uint16[]",
          "name": "moves",
          "type": "uint16[]"
        },
        {
          "internalType": "bytes[2]",
          "name": "signatures",
          "type": "bytes[2]"
        },
        {
          "internalType": "address",
          "name": "user1",
          "type": "address"
        },
        {
          "internalType": "address",
          "name": "user2",
          "type": "address"
        }
      ],
      "name": "verifySignatures",
      "outputs": [
        {
          "internalType": "bool",
          "name": "",
          "type": "bool"
        }
      ],
      "stateMutability": "pure",
      "type": "function"
    }
  ],
  "bytecode": "0x6101806040523480156200001257600080fd5b506040805180820182526009815268086d0cae6e68cd2e6d60bb1b602080830191909152825180840190935260018352603160f81b9083015290620000598260006200012c565b610120526200006a8160016200012c565b61014052815160208084019190912060e052815190820120610100524660a052620000f860e05161010051604080517f8b73c3c69bb8fe3d512ecc4cf759cc79239f7b179b0ffacaa9a75d522b39400f60208201529081019290925260608201524660808201523060a082015260009060c00160405160208183030381529060405280519060200120905090565b60805250503060c0527f88cd504aa119e43a379da182457408707e71fb2ace693309bcba431faaa73255610160526200039a565b60006020835110156200014c57620001448362000165565b90506200015f565b8162000159848262000258565b5060ff90505b92915050565b600080829050601f815111156200019c578260405163305a27a960e01b815260040162000193919062000324565b60405180910390fd5b8051620001a98262000375565b179392505050565b634e487b7160e01b600052604160045260246000fd5b600181811c90821680620001dc57607f821691505b602082108103620001fd57634e487b7160e01b600052602260045260246000fd5b50919050565b601f82111562000253576000816000526020600020601f850160051c810160208610156200022e5750805b601f850160051c820191505b818110156200024f578281556001016200023a565b5050505b505050565b81516001600160401b03811115620002745762000274620001b1565b6200028c81620002858454620001c7565b8462000203565b602080601f831160018114620002c45760008415620002ab5750858301515b600019600386901b1c1916600185901b1785556200024f565b600085815260208120601f198616915b82811015620002f557888601518255948401946001909101908401620002d4565b5085821015620003145787850151600019600388901b60f8161c191681555b5050505050600190811b01905550565b60006020808352835180602085015260005b81811015620003545785810183015185820160400152820162000336565b506000604082860101526040601f19601f8301168501019250505092915050565b80516020808301519190811015620001fd5760001960209190910360031b1b16919050565b60805160a05160c05160e05161010051610120516101405161016051610d1f620003f06000396000607e015260006103d10152600061039f01526000505060005050600050506000505060005050610d1f6000f3fe608060405234801561001057600080fd5b506004361061004c5760003560e01c806321e9f2f4146100515780636732b842146100795780637e6c24dd146100ae57806384b0196e146100c1575b600080fd5b61006461005f366004610965565b6100dc565b60405190151581526020015b60405180910390f35b6100a07f000000000000000000000000000000000000000000000000000000000000000081565b604051908152602001610070565b6100646100bc366004610a45565b61029d565b6100c961030a565b6040516100709796959493929190610b1d565b8351600090816100ed600183610bdf565b67ffffffffffffffff81111561010557610105610776565b60405190808252806020026020018201604052801561012e578160200160208202803683370190505b50905060008267ffffffffffffffff81111561014c5761014c610776565b604051908082528060200260200182016040528015610175578160200160208202803683370190505b50905060005b838110156102695761018e600185610bdf565b81101561021e578881815181106101a7576101a7610c19565b60200260200101518382815181106101c1576101c1610c19565b602002602001019061ffff16908161ffff16815250508881815181106101e9576101e9610c19565b602002602001015182828151811061020357610203610c19565b602002602001019061ffff16908161ffff1681525050610261565b88818151811061023057610230610c19565b602002602001015182828151811061024a5761024a610c19565b602002602001019061ffff16908161ffff16815250505b60010161017b565b5086516102789083908861029d565b801561029157506102918288600160200201518761029d565b98975050505050505050565b600080846040516020016102b19190610c48565b6040516020818303038152906040528051906020012090508273ffffffffffffffffffffffffffffffffffffffff166102ea828661036c565b73ffffffffffffffffffffffffffffffffffffffff161495945050505050565b60006060806000806000606061031e610398565b6103266103ca565b604080516000808252602082019092527f0f000000000000000000000000000000000000000000000000000000000000009b939a50919850469750309650945092509050565b60008060008061037c86866103f7565b92509250925061038c8282610444565b50909150505b92915050565b60606103c57f00000000000000000000000000000000000000000000000000000000000000006000610551565b905090565b60606103c57f00000000000000000000000000000000000000000000000000000000000000006001610551565b600080600083516041036104315760208401516040850151606086015160001a610423888285856105fc565b95509550955050505061043d565b50508151600091506002905b9250925092565b600082600381111561045857610458610c90565b03610461575050565b600182600381111561047557610475610c90565b036104ac576040517ff645eedf00000000000000000000000000000000000000000000000000000000815260040160405180910390fd5b60028260038111156104c0576104c0610c90565b036104ff576040517ffce698f7000000000000000000000000000000000000000000000000000000008152600481018290526024015b60405180910390fd5b600382600381111561051357610513610c90565b0361054d576040517fd78bce0c000000000000000000000000000000000000000000000000000000008152600481018290526024016104f6565b5050565b606060ff831461056b57610564836106f6565b9050610392565b81805461057790610cbf565b80601f01602080910402602001604051908101604052809291908181526020018280546105a390610cbf565b80156105f05780601f106105c5576101008083540402835291602001916105f0565b820191906000526020600020905b8154815290600101906020018083116105d357829003601f168201915b50505050509050610392565b600080807f7fffffffffffffffffffffffffffffff5d576e7357a4501ddfe92f46681b20a084111561063757506000915060039050826106ec565b604080516000808252602082018084528a905260ff891692820192909252606081018790526080810186905260019060a0016020604051602081039080840390855afa15801561068b573d6000803e3d6000fd5b50506040517fffffffffffffffffffffffffffffffffffffffffffffffffffffffffffffffe0015191505073ffffffffffffffffffffffffffffffffffffffff81166106e2575060009250600191508290506106ec565b9250600091508190505b9450945094915050565b6060600061070383610735565b604080516020808252818301909252919250600091906020820181803683375050509182525060208101929092525090565b600060ff8216601f811115610392576040517fb3512b0c00000000000000000000000000000000000000000000000000000000815260040160405180910390fd5b7f4e487b7100000000000000000000000000000000000000000000000000000000600052604160045260246000fd5b6040805190810167ffffffffffffffff811182821017156107c8576107c8610776565b60405290565b604051601f82017fffffffffffffffffffffffffffffffffffffffffffffffffffffffffffffffe016810167ffffffffffffffff8111828210171561081557610815610776565b604052919050565b600082601f83011261082e57600080fd5b8135602067ffffffffffffffff82111561084a5761084a610776565b8160051b6108598282016107ce565b928352848101820192828101908785111561087357600080fd5b83870192505b848310156108a357823561ffff811681146108945760008081fd5b82529183019190830190610879565b979650505050505050565b600082601f8301126108bf57600080fd5b813567ffffffffffffffff8111156108d9576108d9610776565b61090a60207fffffffffffffffffffffffffffffffffffffffffffffffffffffffffffffffe0601f840116016107ce565b81815284602083860101111561091f57600080fd5b816020850160208301376000918101602001919091529392505050565b803573ffffffffffffffffffffffffffffffffffffffff8116811461096057600080fd5b919050565b6000806000806080858703121561097b57600080fd5b843567ffffffffffffffff8082111561099357600080fd5b61099f8883890161081d565b9550602091506020870135818111156109b757600080fd5b8701601f810189136109c857600080fd5b6109d06107a5565b80604083018b8111156109e257600080fd5b835b81811015610a16578035868111156109fc5760008081fd5b610a088e8288016108ae565b8552509286019286016109e4565b50508097505050505050610a2c6040860161093c565b9150610a3a6060860161093c565b905092959194509250565b600080600060608486031215610a5a57600080fd5b833567ffffffffffffffff80821115610a7257600080fd5b610a7e8783880161081d565b94506020860135915080821115610a9457600080fd5b50610aa1868287016108ae565b925050610ab06040850161093c565b90509250925092565b6000815180845260005b81811015610adf57602081850181015186830182015201610ac3565b5060006020828601015260207fffffffffffffffffffffffffffffffffffffffffffffffffffffffffffffffe0601f83011685010191505092915050565b7fff00000000000000000000000000000000000000000000000000000000000000881681526000602060e06020840152610b5a60e084018a610ab9565b8381036040850152610b6c818a610ab9565b6060850189905273ffffffffffffffffffffffffffffffffffffffff8816608086015260a0850187905284810360c08601528551808252602080880193509091019060005b81811015610bcd57835183529284019291840191600101610bb1565b50909c9b505050505050505050505050565b81810381811115610392577f4e487b7100000000000000000000000000000000000000000000000000000000600052601160045260246000fd5b7f4e487b7100000000000000000000000000000000000000000000000000000000600052603260045260246000fd5b6020808252825182820181905260009190848201906040850190845b81811015610c8457835161ffff1683529284019291840191600101610c64565b50909695505050505050565b7f4e487b7100000000000000000000000000000000000000000000000000000000600052602160045260246000fd5b600181811c90821680610cd357607f821691505b602082108103610d0c577f4e487b7100000000000000000000000000000000000000000000000000000000600052602260045260246000fd5b5091905056fea164736f6c6343000818000a",
  "linkReferences": {},
  "deployedLinkReferences": {}
}